{
  "contractName": "SongRegistry",
  "abi": [
    {
      "constant": true,
      "inputs": [
        {
          "internalType": "uint256",
          "name": "",
          "type": "uint256"
        }
      ],
      "name": "songs",
      "outputs": [
        {
          "internalType": "address",
          "name": "owner",
          "type": "address"
        },
        {
          "internalType": "string",
          "name": "title",
          "type": "string"
        },
        {
          "internalType": "string",
          "name": "url",
          "type": "string"
        },
        {
          "internalType": "uint256",
          "name": "price",
          "type": "uint256"
        }
      ],
      "payable": false,
      "stateMutability": "view",
      "type": "function"
    },
    {
      "constant": false,
      "inputs": [
        {
          "internalType": "string",
          "name": "_title",
          "type": "string"
        },
        {
          "internalType": "string",
          "name": "_url",
          "type": "string"
        },
        {
          "internalType": "uint256",
          "name": "_price",
          "type": "uint256"
        }
      ],
      "name": "register",
      "outputs": [
        {
          "internalType": "uint256",
          "name": "",
          "type": "uint256"
        }
      ],
      "payable": false,
      "stateMutability": "nonpayable",
      "type": "function"
    },
    {
      "constant": true,
      "inputs": [],
      "name": "totalNumSongs",
      "outputs": [
        {
          "internalType": "uint256",
          "name": "",
          "type": "uint256"
        }
      ],
      "payable": false,
      "stateMutability": "view",
      "type": "function"
    },
    {
      "constant": false,
      "inputs": [
        {
          "internalType": "uint256",
          "name": "_songID",
          "type": "uint256"
        }
      ],
      "name": "buySong",
      "outputs": [],
      "payable": true,
      "stateMutability": "payable",
      "type": "function"
    }
  ],
  "bytecode": "0x608060405234801561001057600080fd5b506108f7806100206000396000f3fe60806040526004361061003f5760003560e01c8063304cff3014610044578063606a01751461019e578063e8a60558146101cc578063f491494814610349575b600080fd5b34801561005057600080fd5b5061007d6004803603602081101561006757600080fd5b8101908080359060200190929190505050610374565b604051808573ffffffffffffffffffffffffffffffffffffffff1673ffffffffffffffffffffffffffffffffffffffff1681526020018060200180602001848152602001838103835286818151815260200191508051906020019080838360005b838110156100f95780820151818401526020810190506100de565b50505050905090810190601f1680156101265780820380516001836020036101000a031916815260200191505b50838103825285818151815260200191508051906020019080838360005b8381101561015f578082015181840152602081019050610144565b50505050905090810190601f16801561018c5780820380516001836020036101000a031916815260200191505b50965050505050505060405180910390f35b6101ca600480360360208110156101b457600080fd5b8101908080359060200190929190505050610501565b005b3480156101d857600080fd5b50610333600480360360608110156101ef57600080fd5b810190808035906020019064010000000081111561020c57600080fd5b82018360208201111561021e57600080fd5b8035906020019184600183028401116401000000008311171561024057600080fd5b91908080601f016020809104026020016040519081016040528093929190818152602001838380828437600081840152601f19601f820116905080830192505050505050509192919290803590602001906401000000008111156102a357600080fd5b8201836020820111156102b557600080fd5b803590602001918460018302840111640100000000831117156102d757600080fd5b91908080601f016020809104026020016040519081016040528093929190818152602001838380828437600081840152601f19601f82011690508083019250505050505050919291929080359060200190929190505050610698565b6040518082815260200191505060405180910390f35b34801561035557600080fd5b5061035e610811565b6040518082815260200191505060405180910390f35b6000818154811061038157fe5b90600052602060002090600402016000915090508060000160009054906101000a900473ffffffffffffffffffffffffffffffffffffffff1690806001018054600181600116156101000203166002900480601f0160208091040260200160405190810160405280929190818152602001828054600181600116156101000203166002900480156104535780601f1061042857610100808354040283529160200191610453565b820191906000526020600020905b81548152906001019060200180831161043657829003601f168201915b505050505090806002018054600181600116156101000203166002900480601f0160208091040260200160405190810160405280929190818152602001828054600181600116156101000203166002900480156104f15780601f106104c6576101008083540402835291602001916104f1565b820191906000526020600020905b8154815290600101906020018083116104d457829003601f168201915b5050505050908060030154905084565b6000818154811061050e57fe5b9060005260206000209060040201600301543414610594576040517f08c379a00000000000000000000000000000000000000000000000000000000081526004018080602001828103825260038152602001807f736f7a000000000000000000000000000000000000000000000000000000000081525060200191505060405180910390fd5b600160008281526020019081526020016000203390806001815401808255809150509060018203906000526020600020016000909192909190916101000a81548173ffffffffffffffffffffffffffffffffffffffff021916908373ffffffffffffffffffffffffffffffffffffffff16021790555050600080828154811061061957fe5b906000526020600020906004020190508060000160009054906101000a900473ffffffffffffffffffffffffffffffffffffffff1673ffffffffffffffffffffffffffffffffffffffff166108fc349081150290604051600060405180830381858888f19350505050158015610693573d6000803e3d6000fd5b505050565b60008060405180608001604052803373ffffffffffffffffffffffffffffffffffffffff168152602001868152602001858152602001848152509080600181540180825580915050906001820390600052602060002090600402016000909192909190915060008201518160000160006101000a81548173ffffffffffffffffffffffffffffffffffffffff021916908373ffffffffffffffffffffffffffffffffffffffff160217905550602082015181600101908051906020019061076092919061081d565b50604082015181600201908051906020019061077d92919061081d565b50606082015181600301555050506001600060016000805490500381526020019081526020016000203390806001815401808255809150509060018203906000526020600020016000909192909190916101000a81548173ffffffffffffffffffffffffffffffffffffffff021916908373ffffffffffffffffffffffffffffffffffffffff160217905550509392505050565b60008080549050905090565b828054600181600116156101000203166002900490600052602060002090601f016020900481019282601f1061085e57805160ff191683800117855561088c565b8280016001018555821561088c579182015b8281111561088b578251825591602001919060010190610870565b5b509050610899919061089d565b5090565b6108bf91905b808211156108bb5760008160009055506001016108a3565b5090565b9056fea265627a7a7231582029e9ec75829434dd7792ff03cd7f5cfde5b1f0b03f392418d0f56e4a423bf1b064736f6c63430005100032",
  "source": "pragma solidity >= 0.5.0 < 0.7.0;\n\ncontract SongRegistry {\n    // define a song struct\n    struct Song {\n        address owner;  // note that the ordering of the struct has been speficically\n        //done to save gas. Something I missed in tutorial 3 of cryptozombies */\n        string title;\n        string url;\n        uint price; //test\n    }\n\n    Song[] public songs; // don't forget the access modifier!\n\n    mapping (uint => address[]) buyers; // creating a mapping between unique ideas and all of the people who've bought the song.\n    // creating this mapping based on the instruc was quite confusing, but code-wise this makes good sense.\n\n    function register(string memory _title, string memory _url, uint _price) public returns (uint) {\n        songs.push(Song(msg.sender, _title, _url, _price));\n        buyers[songs.length - 1].push(msg.sender);\n    }\n\n    function totalNumSongs() public view returns (uint256) {\n        return (songs.length);\n    }\n\n    function isBuyer(uint256 _songID) private view returns (bool) {\n        bool isOwner = false;\n        for (uint i = 0; i < buyers[_songID].length; i++) {\n            if (buyers[_songID][i] == msg.sender){\n                isOwner = true;\n            }\n        }\n        return isOwner;\n        // address[] storage songBuyers = buyers[_songID]; //apparently this is more efficient! I'm not quite sure why yet, but something about not needing to go back to the blockchain on each iteration and fetch the value. The idea is that the storage keyword somehow makes a local copy or something. The whole storage vs memory difference is pretty confusing because it doesn't seem to be consistent!\n        // bool isOwner = false;\n        // for (uint i; i < songBuyers.length; i++) {\n        //     if (songBuyers[i] == msg.sender){\n        //         isOwner = true;\n        //     }\n        // }\n        // return isOwner;\n    }\n\n    function buySong(uint256 _songID) public payable {\n        require (msg.value == songs[_songID].price, \"soz\");\n        buyers[_songID].push(msg.sender);\n        Song storage song = songs[_songID]; // I think this was just gratuitous\n        // pay the original owner of the song (the first \"buyer\" of the song)\n        address(uint160(song.owner)).transfer(msg.value);\n        // if the original owner address is payable, then do this:\n        // song.owner.transfer(msg.value);\n    }\n}\n\n",
  "sourcePath": "/media/sf_mphil/blockchain_cryptos/SongRegistry/contracts/orignal.sol",
  "compiler": {
    "name": "solc",
    "version": "0.5.16+commit.9c3226ce.Emscripten.clang"
  },
  "schemaVersion": "3.0.23",
  "updatedAt": "2020-02-23T16:26:15.015Z",
  "devdoc": {
    "methods": {}
  },
  "userdoc": {
    "methods": {}
  }
}